:020000040000FA
:040000008531032D16
:040004000034003490
:080008002000A3000308A4007E
:100010000A08A5000B1810282000911A242850283F
:1000200027001618142850280130F00084312824A5
:100030008031843128248031843128248031270084
:10004000161027001410502884312F2480312000EE
:10005000A60AC83026060319271408307102031CAB
:100060004A28013020002006031D3B282000A00A5A
:100070007108F3005028023020002006031D452897
:100080002000A00A7108F40050287108F500200033
:10009000A11450287108F20001302000A00050285F
:1000A000200025088A0024088300A30E230E2100C7
:0400B000911609009C
:0C00B4002000281C6C2820003008AC073D
:1000C00031080318310FAD0732080318320FAE079D
:1000D00033080318330FAF0703102000A80C0310D8
:1000E000A90C0318A8170310AA0C0318A9170310CA
:1000F000AB0C0318AA170310AC0C0318AB170310B2
:10010000AD0C0318AC170310AE0C0318AD17031099
:10011000AF0C0318AE17B40B5A280034031020009C
:10012000BE0DBD1B3E14BD0DBC1B3D140310BC0D0C
:10013000BB1B3C140310BB0DBA1B3B140310BA0DC0
:10014000C71B3A140310C70DC61B47140310C60D76
:10015000C51B46140310C50DC41B45140310C40D64
:10016000C31B44140310C30D3F08BA024008031C0C
:10017000400FBB024108031C410FBC024208031C94
:10018000420FBD020130BE050130031CBE02031C3C
:10019000CD284314B40B8E28E328200043103F08D9
:1001A000BA0740080318400FBB0741080318410F66
:1001B000BC0742080318420FBD07031CE1280130A9
:1001C000BE07B40B8E2800342000CE014808A800DA
:1001D0004908A9004A08AA004B08AB00AC01AD01D0
:1001E000AE01AF010930B000B101B201B30120305E
:1001F0002000B40080315A2080312000BA01BB01B8
:10020000BC01BD01BE010530BF00C001C101C2017A
:100210002808C3002908C4002A08C5002B08C60006
:100220002C08C70028302000B40080318E20813196
:1002300020003518212920302000C3074308CD00B5
:10024000312920302000430203182C294E14430882
:10025000CD002030CD023129CE012030CD00C300A9
:10026000CD0200342000CF0120004F1483310A2337
:10027000813120006708E1006608E0006508DF00C2
:100280002000B50120005808A8005908A900AA01BB
:10029000AB01AC01AD01AE01AF012000B0010130F6
:1002A000B100B201B3012030B40080315A20813155
:1002B00020005F08B6006008B7006108B800B90107
:1002C0002808B6022908031C290FB7022A08031CB4
:1002D0002A0FB8022B08031C2B0FB90203188B2915
:1002E00020005F08B6006008B7006108B800B901D7
:1002F000200035143608A8023708031C370FA9025E
:100300003808031C380FAA022808B6002908B700CD
:100310002A08B8008B2920003608A8003708A90051
:100320003808AA003908AB00AC01AD01AE01AF013D
:100330005A08B0005B08B100B201B30120302000C0
:10034000B40080315A2081312000BA01BB01BC01C8
:10035000BD01BE01BF01C0018030C100C20128083B
:10036000C3002908C4002A08C5002B08C6002C08B1
:10037000C70028302000B40080318E208131200059
:10038000D030C8000730C900CA01CB01CC013518F4
:10039000DC294308C80744080318440FC907450867
:1003A0000318450FCA0746080318460FCB0747082E
:1003B0000318470FCC07182A2000B5010030C706E4
:1003C000031DFA290030C606031DFA290030C506B0
:1003D000031DFA2944084902031CFA29430848026C
:1003E000031CFA2920004308C8024408031C440FD8
:1003F000C902182A200035144808C3024908031C02
:10040000490FC4024A08031C4A0FC5024B08031CCB
:100410004B0FC6024C08031C4C0FC7024308C80010
:100420004408C9004508CA004608CB004708CC006C
:100430002000BA01BB01BC01BD01BE016430BF0098
:10044000C001C101C20120004808C3004908C4001E
:100450004A08C5004B08C6004C08C70028302000D9
:10046000B40080318E20823120004308C800440847
:10047000C9004508CA004608CB004708CC008031B7
:10048000E4208231143020004802031CA92A482AA3
:100490003608A8003708A9003808AA003908AB00B8
:1004A000AC01AD01AE01AF013608B0003708B100B4
:1004B0003808B2003908B30020302000B400803181
:1004C0005A2082312000BA01BB01BC01BD01BE012E
:1004D000BF01C0010430C10020002808C300290862
:1004E000C4002A08C5002B08C6002C08C700283005
:1004F0002000B40080318E202000BA01BB01BC0175
:10050000BD01BE01BF01C0010830C100283020007C
:10051000B40080318E204308A8004408A900450893
:10052000AA004608AB00AC01AD01AE01AF0102303C
:10053000B000B101B201B30120302000B40080311D
:100540005A20823120002808C8028031E4208231FC
:10055000092B3608A8003708A9003808AA0039086E
:10056000AB00AC01AD01AE01AF013608B0003708F9
:10057000B1003808B2003908B30020302000B400C0
:1005800080315A2082312000BA01BB01BC01BD017B
:10059000BE01BF01C0010230C10020002808C30015
:1005A0002908C4002A08C5002B08C6002C08C7006B
:1005B00028302000B40080318E202000BA01BB0119
:1005C000BC01BD01BE01BF01C0010130C100283026
:1005D0002000B40080318E204308A8004408A90000
:1005E0004508AA004608AB00AC01AD01AE01AF0161
:1005F0000330B000B101B201B30120302000B400DB
:1006000080315A20833120002808C8028031E4203C
:0406100083310034FE
:0C06140084313C248331EC302000E200F3
:1006200084317024833120004F1C182B5830192B33
:1006300048302000E2008431702483318431412429
:100640008331123085316A25833184313C248331F2
:10065000EC302000E200843170248331003020002F
:10066000E200843170248331843141248331843128
:100670003C248331ED302000E2008431702483314A
:1006800084318A248331003484313C248331EC303A
:100690002000E2008431702483311E302000E2000B
:1006A00084317024833184314124833184313C246A
:1006B0008331EC302000E200843170248331A23099
:1006C0002000E2008431702483318431412483315D
:1006D00084313C248331ED302000E20084317024E9
:1006E000833184317924833120006408D100630888
:1006F000D00084313C248331EC302000E20084318E
:1007000070248331A4302000E200843170248331CE
:1007100084314124833184313C248331ED30200005
:10072000E2008431702483318431792483312000C4
:100730006408D3006308D20084313C248331EC3058
:100740002000E200843170248331A6302000E200D2
:1007500084317024833184314124833184313C24B9
:100760008331ED302000E20084317024833179241C
:10077000833120006408D5006308D40084313C2410
:100780008331EC302000E200843170248331A830C2
:100790002000E2008431702483318431412483318C
:1007A00084313C248331ED302000E2008431702418
:1007B000833184317924833120006408D7006308B1
:1007C000D60084313C248331EC302000E2008431B7
:1007D00070248331AA302000E200843170248331F8
:1007E00084314124833184313C248331ED30200035
:1007F000E2008431702483318431792483312000F4
:100800006408D9006308D80084313C248431EC307A
:100810002000E200843170248431AC302000E200FA
:1008200084317024843184314124843184313C24E6
:100830008431ED302000E200843170248431843131
:100840007924843120006408DB006308DA00003476
:100850002000111E282C700823009A00003420006C
:10086000911E302C23001D1223001908F1002000D6
:10087000911223001D1600342400161416183E2C65
:100880000034240016151619432C00342400961445
:100890009618482C0034240014194C2C24001608F7
:1008A0001F39031D4F2C00342400961216164B24BA
:1008B0000034240096161616161A5C2C00342400F8
:1008C0009615961D612C4B240034240016154B24DC
:1008D000003424009100240014196C2C4B240034A3
:1008E000240016172000620869242400161B762CA9
:1008F000003454245F244B24240011082000E40019
:1009000054245F244B24240011082000E3005924C0
:100910004124003454245F244B2424001108200077
:10092000E70054245F2424004B24240011082000F5
:10093000E60054245F244B24240011082000E50025
:060940005924412400349B
:0A094600210000308C0000308D000D
:10095000D8308E0000308F0000309000C43021006D
:100960009500003021009900073020009C00FA30EB
:1009700020009B002500C0309E000C302500930015
:1009800025009A00260093003A3023009B00033094
:1009900023009C00230008309F00203023009E008D
:1009A000903023009D00143085316A258431200069
:1009B0008D012000A001A101FF3024009200283009
:1009C000240095008030240094000A3085316A2587
:1009D0008431853152258431833144238431C830B8
:1009E0008B0001302700940023008C018D018F01C2
:1009F0009001210092012000A601A701C801CD01AC
:060A0000CE01B501003437
:0A0A06008431A32485312030210043
:100A100091000A3085316A2585310230F000843139
:100A2000282485312000A118162D122D8531392555
:100A30008531271C122D21009112813132218531FF
:100A40000330F0008431282485310A3085316A254D
:100A5000853120004D08F000843128248531323062
:100A600085316A2585312000A601A7012100911654
:020A7000122D45
:0E0A72007208492520008F00730825009100AE
:100A80007408250098007508260091002000A11028
:100A900000348207C3343C34A5345A346934963464
:100AA0000F340F340F3020008F0010302000E8008A
:100AB0005F30250098002500910026009100FA3053
:100AC00085316A2585312000E80300306806031D62
:040AD0005F2D003462
:0C0AD4002000A2002000950115087D3ACA
:0C0AE000031D6E2D2000A20B6C2D0034B5
:020000040001F9
:02000E00C20925
:02001000FF1DD2
:00000001FF
